:100000000C9472000C948B000C948B000C948B005D
:100010000C948B000C948B000C948B000C948B0034
:100020000C948B000C948B000C948B000C948B0024
:100030000C948B000C948B000C948B000C948B0014
:100040000C948B000C948B000C948B000C948B0004
:100050000C948B000C948B000C948B000C948B00F4
:100060000C948B000C948B000C948B000C948B00E4
:100070000C948B000C948B000C948B000C948B00D4
:100080000C948B000C948B000C948B000C948B00C4
:100090000C948B000C948B000C948B000C948B00B4
:1000A0000C948B000C948B000C948B000C948B00A4
:1000B0000C948B000C948B000C948B000C948B0094
:1000C0000C948B000C948B000C948B000C948B0084
:1000D0000C948B000C948B000C948B000C948B0074
:1000E0000C948B0011241FBECFEFD1E2DEBFCDBF39
:1000F00000E00CBF12E0A0E0B2E0EEEDF2E000E0C4
:100100000BBF02C007900D92AE30B107D9F70E9425
:1001100043010C946D010C940000EBE0F1E0808150
:100120008061808385E08A95F1F7000080818F7E71
:1001300080838FE99FE00197F1F700C000000895E8
:10014000982F817090FD80E891FD806492FD80621F
:1001500093FD806194FD886095FD846096FD8260CA
:1001600097FD816008951F93CF93DF93CBE0D1E09B
:100170009881906298830E94A000182F8881807FC8
:10018000912F9F70892B88830E948D008881807FAA
:1001900012951F70182B18830E948D008FE39FE12A
:1001A0000197F1F700C00000DF91CF911F910895F2
:1001B0001F93CF93DF93CBE0D1E098819F7D98830D
:1001C0000E94A000182F8881807F912F9F70892B1B
:1001D00088830E948D008881807F12951F70182B64
:1001E00018830E948D008FE39FE10197F1F700C013
:1001F0000000DF91CF911F91089581E00E94D80007
:100200008FE39FE10197F1F700C0000008951F936D
:10021000CF93DF93EC0110E0FE01E10FF11D80812F
:10022000811104C0DF91CF911F9108950E94B30006
:100230001F5FF2CF81708295880F880F807C6F706E
:10024000860F80580C94D8002FEF80E792E0215061
:1002500080409040E1F700C00000EAE0F1E08081DA
:100260008F60808380818063808382E00E94D800D9
:1002700088E20E94D8008CE00E94D8000E94FD0015
:1002800086E00C94D8000E94240180E092E00E9455
:1002900007012FEF83ED90E3215080409040E1F77C
:1002A00000C000000E94FD0080E80E94D80081E3A9
:1002B0000E94B30085E80E94D80082E30E94B30048
:1002C00080EC0E94D80083E30E94B30085EC0E947A
:0E02D000D80084E30E94B300FFCFF894FFCF64
:0E02DE0048656C6C6F20776F726C64210000B5
:00000001FF
